:020000040800F2
:1000000000200020C1000008D1000008D100000835
:1000100000000000000000000000000000000000E0
:10002000000000000000000000000000D1000008F7
:100030000000000000000000D1000008D10000080E
:10004000D1000008D1000008D1000008D10000084C
:10005000D1000008D1000008D1000008D10000083C
:10006000D1000008D1000008D1000008D10000082C
:10007000D1000008D1000008D1000008D10000081C
:10008000D1000008D1000008D1000008D10000080C
:10009000D1000008D1000008D1000008D1000008FC
:1000A000D1000008D1000008D1000008D1000008EC
:1000B000D1000008D1000008D1000008D1000008DC
:1000C00080B500AF00F016F8C046BD4680BDC04602
:1000D00080B500AFFEE7C04680B582B000AF786063
:1000E000C0467B685A1E7A60002BFAD1C046BD46D6
:1000F00002B080BD80B500AF0D4B0D4A1268802163
:1001000009030A431A600B4B802252021A600A4B01
:10011000802252001A60094B1800FFF7DDFF064BE2
:1001200000221A60064B1800FFF7D6FFEFE7C04623
:1001300014100240000800481408004820A10700DD
:0401400050C30000A8
:0400000508000000EF
:00000001FF
