:020000040800F2
:1000000000200020C100000835010008350100086B
:1000100000000000000000000000000000000000E0
:100020000000000000000000000000003501000892
:10003000000000000000000035010008B9020008BF
:1000400035010008350100083501000835010008B8
:1000500035010008350100083501000835010008A8
:100060003501000835010008350100083501000898
:100070003501000835010008350100083501000888
:100080003501000885030008350100083501000826
:100090003501000835010008350100083501000868
:1000A0003501000835010008350100083501000858
:1000B0003501000835010008350100083501000848
:1000C00080B584B000AF164BFB60164BBB60164A80
:1000D000144BD31A7B6007E0BB685A1CBA60FA68FD
:1000E000511CF96012781A707B685A1E7A60002BD6
:1000F000F2D10E4BBB600E4A0C4BD31A7B6004E06E
:10010000BB685A1CBA6000221A707B685A1E7A605B
:10011000002BF5D100F076FAC046BD4604B080BD94
:100120002018000800000020040000200400002027
:100130001200002080B500AFFEE7C04680B582B057
:1001400000AF7860064B00221A60C046044B1A6864
:100150007B689A42FAD3C046BD4602B080BDC04615
:100160000800002080B500AF114B114A12688021B1
:1001700089020A431A609023DB059022D205126897
:10018000C02189000A431A600A4B0A4A126880217A
:1001900089050A431A60084B074A126803210A437B
:1001A0001A60064B00221A60C046BD4680BDC0469C
:1001B000141002401C1002400074004008740040FB
:1001C00080B582B000AF0200BB1D1A80034BBA1D80
:1001D00012881A60C046BD4602B080BD0874004057
:1001E00080B500AF214B214A126821490A401A60AC
:1001F000C0461E4B1A6880239B041340F9D11D4B47
:100200001C4A126801210A431A601A4B194A1268E3
:1002100006218A431A60174B164A126810210A43B6
:100220001A60154B144A126814490A401A60124B9E
:10023000114A1268A02189030A431A600E4B0E4A24
:1002400012688021C9010A431A60084B074A1268E4
:10025000802149040A431A60074B074A12680221A9
:100260000A431A60C046BD4680BDC0460010024029
:10027000FFFFFFFE0020024004100240FFFFC3FF0B
:1002800080B500AF084B084A126803210A431A6080
:10029000064B074A12681202120A1A60054B012225
:1002A0001A60C046BD4680BD10E000E014E000E0EA
:1002B0001CE000E018E000E080B500AF104B1B88A8
:1002C0009BB21A000F4B5200D35E1A000E4B1A60FD
:1002D0000B4B1B889BB20D4A934209D80C4B1B88D1
:1002E0009AB2074B1B889BB2D3189AB2044B1A8060
:1002F000084B1B685A1C074B1A60C046BD4680BDA0
:100300000C0000202010000804000020FF03000063
:10031000020000200800002080B500AF124B124AF6
:10032000126810210A431A60104B01221A60104B08
:1003300000221A600F4B882212011A600E4B0E4ADF
:10034000126801210A431A600C4B0C4A1268802182
:1003500089020A431A600A4B094A126801210A43BA
:100360001A60C046BD4680BD1C10024024100040EB
:10037000281000402C1000400C10004000E100E06C
:100380000010004080B582B000AF184B00221A6008
:10039000174B1B889B059A0D164B5200D35E7B6052
:1003A000154B1A687B6853437B607B681B147B602A
:1003B0007B68124A944663447B607B689BB218005A
:1003C000FFF7FEFE0E4B1B889AB2094B1B88D31811
:1003D0009AB2074B1A800B4B1B8820339AB2094BF9
:1003E0001A80C046BD4602B080BDC0461010004015
:1003F0000E0000202008000804000020FF07000075
:10040000000000201000002080B582B000AF020084
:10041000BB1D1A803B1D0A1C1A80BB1D1B889B023A
:100420001049180000F010F903009AB20E4B1A8020
:100430003B1D1B8819008023D80000F005F903003C
:100440009AB20A4B1A800A4B00221A80C046084B07
:100450001B889BB2074A9342F9D9C046BD4602B0F9
:1004600080BDC0462256000000000020020000208F
:100470000C000020FF03000080B500AFAF235B003D
:100480005C4A19001000FFF7BFFFAF235B00594A19
:1004900019001000FFF7B8FFFA235A0093239B00BE
:1004A00011001800FFF7B0FFFA235B00514A190052
:1004B0001000FFF7A9FFFA235B004F4A1900100054
:1004C000FFF7A2FFFA235B004C4A19001000FFF768
:1004D0009BFFAF235B00474A19001000FFF794FF12
:1004E000AF235B00434A19001000FFF78DFFFA238A
:1004F0005A0093239B0011001800FFF785FFFA2391
:100500005B003C4A19001000FFF77EFFFA235A00F7
:10051000C4239B0011001800FFF776FFFA235B004D
:10052000354A19001000FFF76FFFAF235B00314A17
:1005300019001000FFF768FFAF235B002D4A190078
:100540001000FFF761FFAF235B002D4A1900100078
:10055000FFF75AFFFA235A00DC239B001100180012
:10056000FFF752FFFA235B00234A19001000FFF740
:100570004BFFFA235B00214A19001000FFF744FFEC
:10058000FA235A0093239B0011001800FFF73CFF49
:10059000AF235A00E9239B0011001800FFF734FF36
:1005A000AF235A00E9239B0011001800FFF72CFF2E
:1005B000FA235A00DC239B0011001800FFF724FFE8
:1005C000FA235B000C4A19001000FFF71DFFFA2305
:1005D0005A00C4239B0011001800FFF715FFFA23EF
:1005E0005B00054A19001000FFF70EFFC046BD462C
:1005F00080BDC0460A020000BA020000920200005C
:100600001404000080B500AF0D4B0D4A1268802124
:1006100009030A431A600B4BA022D2021A60FFF7AB
:10062000DFFDFFF79FFDFFF72BFEFFF775FE62B6BC
:10063000FFF722FFFA239B001800FFF77FFDF7E783
:10064000141002400008004803460B437FD40022E8
:1006500043088B4274D303098B425FD3030A8B4256
:1006600044D3030B8B4228D3030C8B420DD3FF22C0
:10067000090212BA030C8B4202D31212090265D08E
:10068000030B8B4219D300E0090AC30B8B4201D341
:10069000CB03C01A5241830B8B4201D38B03C01A88
:1006A0005241430B8B4201D34B03C01A5241030BFF
:1006B0008B4201D30B03C01A5241C30A8B4201D3B0
:1006C000CB02C01A5241830A8B4201D38B02C01A5B
:1006D0005241430A8B4201D34B02C01A5241030AD2
:1006E0008B4201D30B02C01A5241CDD2C3098B42B7
:1006F00001D3CB01C01A524183098B4201D38B0134
:10070000C01A524143098B4201D34B01C01A5241D6
:1007100003098B4201D30B01C01A5241C3088B421B
:1007200001D3CB00C01A524183088B4201D38B0006
:10073000C01A524143088B4201D34B00C01A5241A8
:10074000411A00D201465241104670475DE0CA0F7F
:1007500000D04942031000D34042534000229C463F
:1007600003098B422DD3030A8B4212D3FC22890149
:1007700012BA030A8B420CD3890192118B4208D31F
:10078000890192118B4204D389013AD0921100E081
:100790008909C3098B4201D3CB01C01A5241830995
:1007A0008B4201D38B01C01A524143098B4201D3C2
:1007B0004B01C01A524103098B4201D30B01C01AED
:1007C0005241C3088B4201D3CB00C01A5241830867
:1007D0008B4201D38B00C01A5241D9D243088B42BD
:1007E00001D34B00C01A5241411A00D20146634660
:1007F00052415B10104601D34042002B00D54942C4
:10080000704763465B1000D3404201B5002000F002
:1008100005F802BD0029F8D016E770477047C046BA
:100820000000F202E305D208BD0BA50E861162148A
:100830003517001AC11C771F2222C0245127D32943
:10084000462CA82EFA303A336835823789397B3BFB
:10085000593D213FD3406E42F4436245B946F847C3
:1008600020492F4A274B084CD04C804D194E9A4EA8
:10087000044F574F944FBA4FC94FC44FAA4F7B4FA5
:10088000384FE24E794EFE4D724DD64C294C6E4B90
:10089000A54ACF49EC48FD4705470246F744E443E3
:1008A000CA42AA4185405D3F313E043DD53BA63A50
:1008B00078394C382237FC35DA34BD33A6329731DB
:1008C0008E308E2F972EAA2DC72CEF2B222B612A2C
:1008D000AD2906296C28E0276227F22691263F26BB
:1008E000FB25C725A1258A2583258A25A025C52581
:1008F000F82539268826E5264E27C4274728D528F7
:100900006E29122AC02A782B382C002DCF2DA52E27
:10091000812F6230473130321B330834F634E535ED
:10092000D236BE37A7388E39703A4D3B243CF53C61
:10093000BE3D7F3E383FE63F8A402341B0413142D1
:10094000A5420B436343AC43E64310442B44344479
:100950002E441644ED43B24366430843984217427F
:100960008441DF402940613F883E9E3DA33C993B46
:100970007E3A54391B38D3367E351B34AB32303196
:10098000A92F172E7C2CD72A2B297727BC25FC23AF
:1009900037226E20A31ED51C071B39196B17A01513
:1009A000D813131254109A0EE70C3D0B9A09020843
:1009B0007406F2047C031402B9006EFF32FE06FDD9
:1009C000EBFBE2FAECF908F937F87BF7D3F640F6DF
:1009D000C2F55AF507F5CBF4A5F495F49CF4BAF4F6
:1009E000EEF438F599F510F69DF640F7F8F7C6F8ED
:1009F000A8F99EFAA8FBC6FCF6FD38FF8A00EF01B5
:100A00006303E60477061708C2097A0B3C0D080F4A
:100A1000DD10BA129E1488167618681A5D1C541ED2
:100A20004B204122362428261628002AE42BC02DEC
:100A3000952F61312333DA3485362438B539373B85
:100A4000AA3C0D3E5F3F9F40CD41E942F043E44464
:100A5000C3458D464247E0476948DB4836497B49F4
:100A6000A849BF49BE49A64977493249D548624895
:100A7000D94739478446BA45DB44E843E142C74198
:100A80009A405B3F0B3EAB3C3B3BBB392E38933629
:100A9000EB3438337B31B32FE32D0A2C2B2A452836
:100AA0005B266D247B228820931E9E1CAA1AB818F0
:100AB000C916DD14F61215113A0F660D9A0BD709F7
:100AC0001E086F06CB043303A8012900B9FE57FDA9
:100AD00003FCBEFA89F963F84EF749F655F572F44E
:100AE000A0F3DFF230F291F104F188F01DF0C3EFD2
:100AF00079EF40EF16EFFDEEF2EEF7EE0AEF2BEF97
:100B000059EF94EFDBEF2EF08CF0F4F066F1E0F1AA
:100B100063F2ECF27DF313F4ADF44CF5EEF592F6DE
:100B200038F7DFF785F82AF9CEF96EFA0BFBA4FB4C
:100B300038FCC6FC4DFDCCFD44FEB2FE17FF72FF33
:100B4000C2FF06003F006C008B009E00A2009900CF
:100B500081005B002500E2FF8EFF2BFFB8FE36FE12
:100B6000A5FD04FD54FC95FBC8FAECF901F909F860
:100B700003F7F0F5D0F4A5F36DF22BF1DFEF89EE7A
:100B800029EDC2EB53EADEE862E7E2E55DE4D5E297
:100B90004AE1BEDF31DEA5DC1ADB91D90CD88AD65A
:100BA0000ED598D329D2C2D064CF10CEC7CC89CB72
:100BB00058CA35C91FC819C723C63EC56AC4A8C3C9
:100BC000F9C25EC2D6C163C105C1BDC08BC06FC0D2
:100BD0006AC07CC0A5C0E6C03EC1AEC136C2D6C2A6
:100BE0008DC35DC443C541C656C782C8C4C91DCBA9
:100BF0008BCC0ECEA5CF51D110D3E2D4C6D6BBD864
:100C0000C1DAD7DCFBDE2EE16DE3B9E510E871EA6D
:100C1000DCEC4EEFC8F148F4CDF655F9E1FB6EFE81
:100C2000FB00880314069D08230BA30D1D109112D1
:100C3000FC145E17B719041C451E79209F22B624A8
:100C4000BE26B5289B2A6F2C312EDF2F7931FF323B
:100C50006F34CA3510373E385639583A423B143C47
:100C6000CF3C723DFE3D713ECE3E123F3F3F553F71
:100C7000543F3C3F0E3FCA3E713E023E7F3DE83C42
:100C80003D3C803BB13AD039DE38DD37CC36AE352D
:100C9000813449330432B5305B2FF92D8F2C1E2B54
:100CA000A6292A28A92625259F2317228F20081F39
:100CB000821DFF1B7F1A03198C171B16B0144E13CD
:100CC000F311A110590F1B0EE80CC00BA50A9609D1
:100CD0009408A007B906E00516055B04AF031103ED
:100CE0008302050295013501E400A30070004C0069
:100CF0003700300037004B006D009C00D7001D010D
:100D00006F01CC013202A2021B039C032404B20433
:100D10004705E0057E061F07C20768080E09B409EB
:100D20005A0AFE0AA00B3E0CD80C6D0DFC0D850E68
:100D3000060F7F0FEF0F5610B210031149118211E9
:100D4000AE11CC11DD11DF11D211B6118A114D1186
:100D50000111A3103510B60F250F830ED00D0C0D09
:100D6000360C4F0B570A4F0935080C07D20589047A
:100D70003103CA015400D2FE42FDA6FBFDF949F839
:100D80008BF6C4F4F3F21AF13AEF53ED67EB76E920
:100D900082E78BE592E398E19EDFA5DDAEDBBBD970
:100DA000CBD7E1D5FCD31ED249D07CCEB9CC01CB78
:100DB00054C9B4C722C69DC428C3C2C16EC02ABFCD
:100DC000F8BDD9BCCEBBD6BAF2B923B96AB8C6B79A
:100DD00038B7C1B660B616B6E3B5C7B5C3B5D5B5B5
:100DE000FFB540B698B606B78BB727B8D8B89FB945
:100DF0007BBA6BBB70BC89BDB4BEF2BF42C1A2C29C
:100E000013C493C522C7BFC868CA1ECCDECDA9CF04
:100E10007CD158D33AD523D711D902DBF6DCECDEEE
:100E2000E3E0D9E2CEE4C0E6AFE899EA7DEC5BEE20
:100E300030F0FDF1C1F379F526F7C6F859FADEFB7B
:100E400054FDB9FE0E0052018402A303B004A805AC
:100E50008D065D071808BE084D09C7092B0A790AD7
:100E6000B00AD10ADB0ACF0AAC0A730A250AC00904
:100E70004609B70813085A078E06AE05BC04B70327
:100E8000A00279014100FBFEA5FD40FCCFFA51F91B
:100E9000C8F734F697F4F1F242F18EEFD3ED13EC8C
:100EA0004FEA88E8C0E6F6E42CE363E19CDFD8DD96
:100EB00018DC5CDAA6D8F7D64FD5AFD318D28AD0D3
:100EC00008CF90CD25CCC6CA75C931C8FCC6D6C5D9
:100ED000BFC4B8C3C1C2DBC106C141C08EBFEDBE35
:100EE0005DBEDFBD72BD17BDCEBC96BC70BC5ABC2A
:100EF00056BC62BC7FBCABBCE7BC33BD8CBDF4BD93
:100F00006ABEECBE7ABF15C0BAC06AC123C2E5C2D0
:100F1000AFC380C458C536C618C7FEC7E8C8D4C911
:100F2000C1CAAFCB9CCC89CD73CE5BCF40D01FD193
:100F3000FAD1CFD29DD363D422D5D7D584D626D7A4
:100F4000BDD749D8C9D83DD9A4D9FED94ADA88DA5B
:100F5000B8DADADAEDDAF1DAE6DACCDAA3DA6BDA91
:100F600024DACED969D9F5D873D8E3D745D799D63D
:100F7000E1D51CD54BD46FD387D295D199D095CFDD
:100F800088CE73CD58CC36CB0FCAE4C8B5C784C65B
:100F900051C51DC4EAC2B7C186C059BF2FBE0ABD24
:100FA000EBBBD3BAC3B9BBB8BDB7CAB6E2B507B5D8
:100FB00039B479B3C8B226B295B116B1A8B04EB063
:100FC00006B0D3AFB3AFAAAFB5AFD7AF0FB05DB078
:100FD000C3B040B1D5B182B246B322B417B523B67F
:100FE00047B783B8D6B941BBC3BC5CBE0BC0D0C148
:100FF000ABC39AC59EC7B6C9E1CB1FCE6FD0CFD2C7
:1010000040D5C1D74FDAECDC95DF4AE20AE5D4E7F8
:10101000A7EA81ED62F048F334F622F913FC0000F0
:10102000FF03FE03FD03FC03FB03FA03F903F803CC
:10103000F703F603F503F403F303F203F103F003FC
:10104000EF03EE03ED03EC03EB03EA03E903E8032C
:10105000E703E603E503E403E303E203E103E0035C
:10106000DF03DE03DD03DC03DB03DA03D903D8038C
:10107000D703D603D503D403D303D203D103D003BC
:10108000CF03CE03CD03CC03CB03CA03C903C803EC
:10109000C703C603C503C403C303C203C103C0031C
:1010A000BF03BE03BD03BC03BB03BA03B903B8034C
:1010B000B703B603B503B403B303B203B103B0037C
:1010C000AF03AE03AD03AC03AB03AA03A903A803AC
:1010D000A703A603A503A403A303A203A103A003DC
:1010E0009F039E039D039C039B039A03990398030C
:1010F000970396039503940393039203910390033C
:101100008F038E038D038C038B038A03890388036B
:10111000870386038503840383038203810380039B
:101120007F037E037D037C037B037A0379037803CB
:1011300077037603750374037303720371037003FB
:101140006F036E036D036C036B036A03690368032B
:10115000670366036503640363036203610360035B
:101160005F035E035D035C035B035A03590358038B
:1011700057035603550354035303520351035003BB
:101180004F034E034D034C034B034A0349034803EB
:10119000470346034503440343034203410340031B
:1011A0003F033E033D033C033B033A03390338034B
:1011B000370336033503340333033203310330037B
:1011C0002F032E032D032C032B032A0329032803AB
:1011D00027032603250324032303220321032003DB
:1011E0001F031E031D031C031B031A03190318030B
:1011F000170316031503140313031203110310033B
:101200000F030E030D030C030B030A03090308036A
:10121000070306030503040303030203010300039A
:10122000FF02FE02FD02FC02FB02FA02F902F802D2
:10123000F702F602F502F402F302F202F102F00202
:10124000EF02EE02ED02EC02EB02EA02E902E80232
:10125000E702E602E502E402E302E202E102E00262
:10126000DF02DE02DD02DC02DB02DA02D902D80292
:10127000D702D602D502D402D302D202D102D002C2
:10128000CF02CE02CD02CC02CB02CA02C902C802F2
:10129000C702C602C502C402C302C202C102C00222
:1012A000BF02BE02BD02BC02BB02BA02B902B80252
:1012B000B702B602B502B402B302B202B102B00282
:1012C000AF02AE02AD02AC02AB02AA02A902A802B2
:1012D000A702A602A502A402A302A202A102A002E2
:1012E0009F029E029D029C029B029A029902980212
:1012F0009702960295029402930292029102900242
:101300008F028E028D028C028B028A028902880271
:1013100087028602850284028302820281028002A1
:101320007F027E027D027C027B027A0279027802D1
:101330007702760275027402730272027102700201
:101340006F026E026D026C026B026A026902680231
:101350006702660265026402630262026102600261
:101360005F025E025D025C025B025A025902580291
:1013700057025602550254025302520251025002C1
:101380004F024E024D024C024B024A0249024802F1
:101390004702460245024402430242024102400221
:1013A0003F023E023D023C023B023A023902380251
:1013B0003702360235023402330232023102300281
:1013C0002F022E022D022C022B022A0229022802B1
:1013D00027022602250224022302220221022002E1
:1013E0001F021E021D021C021B021A021902180211
:1013F0001702160215021402130212021102100241
:101400000F020E020D020C020B020A020902080270
:1014100007020602050204020302020201020002A0
:10142000FF01FE01FD01FC01FB01FA01F901F801D8
:10143000F701F601F501F401F301F201F101F00108
:10144000EF01EE01ED01EC01EB01EA01E901E80138
:10145000E701E601E501E401E301E201E101E00168
:10146000DF01DE01DD01DC01DB01DA01D901D80198
:10147000D701D601D501D401D301D201D101D001C8
:10148000CF01CE01CD01CC01CB01CA01C901C801F8
:10149000C701C601C501C401C301C201C101C00128
:1014A000BF01BE01BD01BC01BB01BA01B901B80158
:1014B000B701B601B501B401B301B201B101B00188
:1014C000AF01AE01AD01AC01AB01AA01A901A801B8
:1014D000A701A601A501A401A301A201A101A001E8
:1014E0009F019E019D019C019B019A019901980118
:1014F0009701960195019401930192019101900148
:101500008F018E018D018C018B018A018901880177
:1015100087018601850184018301820181018001A7
:101520007F017E017D017C017B017A0179017801D7
:101530007701760175017401730172017101700107
:101540006F016E016D016C016B016A016901680137
:101550006701660165016401630162016101600167
:101560005F015E015D015C015B015A015901580197
:1015700057015601550154015301520151015001C7
:101580004F014E014D014C014B014A0149014801F7
:101590004701460145014401430142014101400127
:1015A0003F013E013D013C013B013A013901380157
:1015B0003701360135013401330132013101300187
:1015C0002F012E012D012C012B012A0129012801B7
:1015D00027012601250124012301220121012001E7
:1015E0001F011E011D011C011B011A011901180117
:1015F0001701160115011401130112011101100147
:101600000F010E010D010C010B010A010901080176
:1016100007010601050104010301020101010001A6
:10162000FF00FE00FD00FC00FB00FA00F900F800DE
:10163000F700F600F500F400F300F200F100F0000E
:10164000EF00EE00ED00EC00EB00EA00E900E8003E
:10165000E700E600E500E400E300E200E100E0006E
:10166000DF00DE00DD00DC00DB00DA00D900D8009E
:10167000D700D600D500D400D300D200D100D000CE
:10168000CF00CE00CD00CC00CB00CA00C900C800FE
:10169000C700C600C500C400C300C200C100C0002E
:1016A000BF00BE00BD00BC00BB00BA00B900B8005E
:1016B000B700B600B500B400B300B200B100B0008E
:1016C000AF00AE00AD00AC00AB00AA00A900A800BE
:1016D000A700A600A500A400A300A200A100A000EE
:1016E0009F009E009D009C009B009A00990098001E
:1016F000970096009500940093009200910090004E
:101700008F008E008D008C008B008A00890088007D
:1017100087008600850084008300820081008000AD
:101720007F007E007D007C007B007A0079007800DD
:10173000770076007500740073007200710070000D
:101740006F006E006D006C006B006A00690068003D
:10175000670066006500640063006200610060006D
:101760005F005E005D005C005B005A00590058009D
:1017700057005600550054005300520051005000CD
:101780004F004E004D004C004B004A0049004800FD
:10179000470046004500440043004200410040002D
:1017A0003F003E003D003C003B003A00390038005D
:1017B000370036003500340033003200310030008D
:1017C0002F002E002D002C002B002A0029002800BD
:1017D00027002600250024002300220021002000ED
:1017E0001F001E001D001C001B001A00190018001D
:1017F000170016001500140013001200110010004D
:101800000F000E000D000C000B000A00090008007C
:1018100007000600050004000300020001000000AC
:0418200001000100C2
:0400000508000000EF
:00000001FF
